:1000000009C00EC00DC00CC00BC00AC009C008C09A
:1000100007C006C011241FBECFE9CDBF02D033C038
:10002000EFCF87B3886187BB83E0C49AE7E0F2E54E
:100030003197F1F700C00000C498E7E0F2E531978E
:10004000F1F700C00000815081F787EC9FEA01972B
:10005000F1F700C0000083E0C39AE7E0F2E53197D2
:10006000F1F700C00000C398E7E0F2E53197F1F73F
:1000700000C00000815081F787EC9FEA0197F1F7FB
:0A00800000C00000D1CFF894FFCFBC
:00000001FF
